:1000000004308A00DC2C00000A108A100A118207D2
:1000100028340C3401340634D4204226452A202AC0
:10002000C9264500412641294D1025183232BA1201
:1000300030196410D0260000412641294D102518A2
:100040003232BA1230196410C1260000D32A4E226F
:10005000C12C0001CD274E22C12C0001D42AC52974
:10006000C4205900D7224427C529C420590054244C
:1000700055295322C12C000146294922C12C0001D7
:10008000D320D42A5222C12C00013C308400831397
:100090000008031959280130F800F701F70B4E2822
:1000A000F80B4D284A30F700F70B54285728800BDF
:1000B0004B28080043185E2808125F28081683168C
:1000C00008128312C31866288812672888168316B8
:1000D0008812831243196E2808136F280817831695
:1000E00008138312C3197628881377288817831674
:1000F0008813000083120814831608107F288312C7
:1001000008108316081083120800C401831608160D
:1001100000308312081A0130C40483168816003098
:100120008312881A0130F7000310F70D7708C40412
:100130008316081700308312081B0130F700F70DF3
:10014000F70DFC30F7057708C404831688170030D4
:100150008312881B0130F700F70DF70DF70DF8300B
:10016000F7057708C4044408F8000800831608104F
:1001700088100811831288108316881008168816B4
:1001800008178817831208158316081100008312B8
:100190000814831608100000831285207808C30015
:1001A0000810831608100000831208148316081024
:1001B0000000831285207808C200081083160810FA
:1001C00008128812081388138312430EF700F030C8
:1001D000F70577084204F8007808C200C21FF22829
:1001E0008316BE28C008031DF7288810F828881435
:1001F000831688100000831208118316081100006E
:1002000083120810831608108312410EC2000F30AB
:10021000C2054208C3005A2041080F39C200C3007A
:100220005A20080083160812881208138813081031
:100230008810081183128810831688108312081101
:100240008316081183120810831608100F308312CA
:10025000BC0045200130B5003508033C031C38299B
:100260000330C3005A200530BC004520B50A2C29B4
:100270000230C3005A200530BC004520B5013508C6
:10028000033C031C4C2935080420B600C001360885
:10029000C100B620B50A3F298A110A12002D083084
:1002A000F80000008711A0112008831687000000C5
:1002B0008312B70D0712031C63292016200883162A
:1002C0008700672983122012200883168700000008
:1002D0008312A0152008831687008312871D6E29BC
:1002E000F80B512900008711A01120088316870000
:1002F00000008312201620088316870000000000EB
:100300008312A0152008831687008312871D862973
:10031000F8010000071A78148711A011200883162D
:100320008700831207122012200883168700831289
:1003300008003C08F8013B020318A1293B08F7001C
:10034000AD29F7010830BD00BB0DF70D3C08770261
:100350000318F700F80DBD0BA42908003708BB00EF
:100360000A30BC009921780EB800F030B805370883
:10037000BB000A30BC00992177083807F800080054
:10038000201620088316870000008312A01520087D
:10039000831687000000831207122012200883169C
:1003A0008700000083128711A011200883168700A0
:1003B000D0308312B7004F21B7014F212108B70079
:1003C000AE217808B500B7004F212208B700AE2152
:1003D0007808B500B7004F212308B700AE21780890
:1003E000B500B7004F212408B7004F212708B700F8
:1003F000AE217808B500B7004F212808B700AE211C
:100400007808B500B7004F21201220088316870016
:1004100000008312A0152008831687008312871D11
:100420000F2A0000132A00002016200883168700D8
:10043000000083128A110A12012D2016200883164B
:10044000870000008312A015200883168700000093
:1004500083120712201220088316870000008312DF
:100460008711A011200883168700D0308312B700AF
:100470004F213508B7004F2120122008831687002E
:1004800000008312A0152008831687008312871DA1
:10049000472A00004B2A00002016200883168700F8
:1004A00000008312201620088316870000008312A4
:1004B000A01520088316870000008312071220125F
:1004C000200883168700000083128711A0112008DE
:1004D00083168700D1308312B7004F21F70108300F
:1004E000B8007708B900201620088316870000009E
:1004F0008312A0152008831687008312871D7E2A89
:10050000071A0314071E0310F80D0000A01120089D
:100510008316870083128711B80B732A20162008D0
:1005200083168700000083120712390803199D2AD9
:10053000201220088316870083120000A0152008CF
:10054000831687008312871DA32A00008711A0113C
:10055000200883168700000083120712201220084B
:100560008316870078088312B600201220088316AD
:10057000870000008312A0152008831687008312CD
:10058000871DC02A0000C42A0000201620088316F8
:100590008700000083123608F8000800350EF700C7
:1005A0000F30F7057708B7003708B8000A30B900F0
:1005B000F701F801380803103918F707F70CF80CA1
:1005C000B918F707F70CF80C3919F707F70CF80CFE
:1005D000B919F707F70CF80C391AF707F70CF80CEC
:1005E000B91AF707F70CF80C391BF707F70CF80CDA
:1005F000B91BF707F70CF80C7808B60035080F3967
:100600007807F80008003D0B062B092B4030BE0090
:100610000A2BBE0101303C02BE073E088038BF00F5
:10062000C0013F08C100B62008003B08073A031983
:10063000232B0B3A0319282B063A0319302B023AC5
:100640000319362B3B2B0130BC00BD000323402B8C
:10065000C0010130C100B6200230BC004520402B53
:100660000130BC000230BD000323402BC00110301C
:10067000C100B620402B0130C0003B08C100B620AD
:1006800008002030361E3030B7003508F700B51F9F
:10069000512BF709F70A7708B5002D30B700B617C8
:1006A00036143508BB006430BC0099217708B500CA
:1006B00030307807B8003508BB000A30BC009921FB
:1006C00030307707BA0030307807B9003708F700C4
:1006D000303038020319702BB614B61B3615842B34
:1006E0003619842B3708B800B6187B2B3030390206
:1006F00003197E2B3614B61BB614842B031D361437
:10070000031D842B3808B90036198B2BB6188E2B95
:100710003618912B942B3708BB0015233808BB00E3
:1007200015233908BB0015233A08BB001523080020
:100730000B08B7008B13831603178C170C140000DB
:10074000000083120C087F390319DF2B0313B80054
:1007500003170D080313B90003170F080313BA009A
:100760003808BB001523390803178D0003133A0816
:1007700003178F0083168C170C14000000008312DF
:100780000C0D0E0D7F390319DF2B0313B80003176F
:100790000D080313B90003170F080313BA00380834
:1007A000BB001523390803178D0003133A080317FC
:1007B0008F008D0A03198F0A03139B2B0317031352
:1007C000B71B8B1708001430BC00452008000B082D
:1007D000B6008B13831603178C170C14000000004F
:1007E0000318192C83120C087F390313B700031761
:1007F0000D080313B80003170F080313B9003708D7
:10080000BB001523380803178D000313390803179D
:100810008F0083168C170C14000000008312031342
:10082000B50B132C162C83160317192C382C831692
:10083000031783120C0D0E0D7F390313B700031736
:100840000D080313B80003170F080313B900370886
:10085000BB001523380803178D000313390803174D
:100860008F008D0A03198F0A03100313B50BEA2BAF
:10087000B61B8B1708000130BC000230BD000323FB
:100880002B0B632C123003178D0000308F000310E8
:1008900006300313B500E7232908B5000130B60080
:1008A00041233A30BB0015232A08B5000130B600B9
:1008B00041232030BB0015235030BB0015234D30A1
:1008C000BB001523832C1C3003178D0000308F00D4
:1008D000031006300313B500E7232908B5000130E3
:1008E000B60041233A30BB0015232A08B500013079
:1008F000B60041232030BB0015234130BB00152337
:100900004D30BB0015238A110A12712E2908B2003E
:100910002A08B3002B08B4008A110A12832EAE08ED
:100920000319D92CA31E962C0130972C0030B5004A
:1009300023081F39B600B608031DA12C0C30B600E1
:10094000A72C36080C3C0318A72C0C30B602330831
:10095000B700AE2178082202031DD42C3208B7005C
:10096000AE2178083602031DD42C34083502031D4D
:10097000D42CAF08031DD32C0130AF008316851291
:10098000831285160C30BB0015230C3003178D0025
:1009900000308F00031398232830B700FA30BC00D2
:1009A0004520B70BCE2CD92CAF01831685128312AC
:1009B00085128A110A128F2E03081F398300FF3017
:1009C000A000A101A2017130A300A4011330A7006F
:1009D0000930A800A901AA01AB01AC01AD01AE012B
:1009E000AF01B101B001B201B301B40183161F140C
:1009F0009F141F159F1107309C0083138312122927
:100A0000C02983168113FF30860085128312851258
:100A1000B5011D227808A1000130B5001D2278081B
:100A2000A2000230B5001D227808A3000330B500F3
:100A30001D227808A4000430B5001D227808A70004
:100A40000530B5001D227808A8002108B500CE2287
:100A50007808A1002208B500CE227808A200230859
:100A6000B500CE227808A3002408B500CE2278086D
:100A7000A4002708B500CE227808A7002808B500F2
:100A8000CE227808A80023081F39A500A508031D59
:100A90004C2D0C30A500522D25080C3C0318522D6E
:100AA0000C30A5020C30BB0015232508B500013021
:100AB000B60041233A30BB0015232208B5000130AF
:100AC000B60041233A30BB0015232108B5000130A0
:100AD000B60041232030BB0015230B30BC00013091
:100AE000BD00032323082039A6002608203C031D4F
:100AF000802D5030BB0015234D30BB001523862DB3
:100B00004130BB0015234D30BB0015230130BC0024
:100B10000230BD0003232408F93E0318C82D073E08
:100B2000AF2E263003178D0000308F00031398235B
:100B3000C82D2A3003178D0000308F00031398232F
:100B4000C82D2E3003178D0000308F00031398231B
:100B5000C82D323003178D0000308F000313982307
:100B6000C82D373003178D0000308F0003139823F2
:100B7000C82D3C3003178D0000308F0003139823DD
:100B8000C82D403003178D0000308F0003139823C9
:100B90000B30BC000230BD0003232708B500013034
:100BA000B60041232F30BB0015232808B5000130C3
:100BB000B60041238316861483128618EC2DE32396
:100BC000831686148312861CE02DAC080319EA2DC7
:100BD0000030EB2D0130AC00AC080319712E8316E8
:100BE000061483120618022EE323831606148312BA
:100BF000061CF52DAD080319002E01302D02012E23
:100C00002D08AD008316061583120619162EE32350
:100C1000831606158312061D082E2D08013C031CA1
:100C2000142E01302D07152E2D08AD0083168615C4
:100C300083128619462EE323831686158312861D9A
:100C40001C2EAD08031D332E01302907B600BB0052
:100C50000C30BC0099217708A900A908031D322E89
:100C60000C30A900462E2D0B3F2E01302A07B6006E
:100C7000BB003C30BC0099217708AA00462EAB0887
:100C80000319442E0030452E0130AB0083160616A2
:100C90008312061A702EE323831606168312061E8D
:100CA0004C2EAD08031D5E2E2908013C03185B2E57
:100CB000013029025C2E0C30A900702E2D0B692EFC
:100CC000AA080319662E01302A02672E3B30AA00BB
:100CD000702EAB0803196E2E00306F2E0130AB0062
:100CE0003B2C831686168312861A8E2EE3238316D8
:100CF00086168312861E772EAC080319842EAC014B
:100D00000130AE00862C8E2EAF0803198E2E83166E
:100D1000851283128512AF01B101B0018F2CAF088B
:100D20000319A42EB00A0319B10AB108031D9C2EA1
:100D300030083B3C0318A32E8316851283128512BC
:100D4000AF01B101B001A62EB101B0010430B50070
:100D5000FA30BC004520B50BA82E082D63000A1000
:100D60008A140A158207912D992DA12DA92DB12D37
:040D7000B92DC12DAB
:02400E00313F40
:00000001FF
;PIC16F877A
;CRC=57EF  CREATED="09-Nov-24 15:08"
